:100000000C9463000C948B000C948B000C948B006C
:100010000C948B000C948B000C948B000C94AB0212
:100020000C948B000C948B000C948B000C948B0024
:100030000C948B000C948B000C948B000C948B0014
:100040000C945F030C948B000C942D030C94070309
:100050000C948B000C948B000C948B000C948B00F4
:100060000C948B000C948B000000000024002700EF
:100070002A000000000023002600290000000008DC
:10008000000201000003040700000000000000005F
:10009000010204081020408001020408102001021F
:1000A0000408102000000000250028002B00040494
:1000B0000404040404040202020202020303030310
:1000C00003030200450511241FBECFEFD8E0DEBFB9
:1000D000CDBF11E0A0E0B1E0E4EFFAE002C005908E
:1000E0000D92AE33B107D9F721E0AEE3B1E001C024
:1000F0001D92A53FB207E1F710E0C3E6D0E004C0CF
:100100002197FE010E947205C236D107C9F70E94ED
:10011000A9030C9478050C940000AF92BF92CF9283
:10012000DF92EF92FF920F931F93CF93DF936C01B7
:100130007B018B01040F151FEB015E01AE18BF0898
:10014000C017D10759F06991D601ED91FC9101904A
:10015000F081E02DC6010995892B79F7C501DF9162
:10016000CF911F910F91FF90EF90DF90CF90BF90B4
:10017000AF900895FC01538D448D252F30E0842FDE
:1001800090E0821B930B541710F0CF9608950197BF
:100190000895FC01918D828D981761F0A28DAE0FAC
:1001A000BF2FB11D5D968C91928D9F5F9F73928F33
:1001B00090E008958FEF9FEF0895FC01918D828D5F
:1001C000981731F0828DE80FF11D858D90E008952C
:1001D0008FEF9FEF0895FC01918D228D892F90E084
:1001E000805C9F4F821B91098F739927089588E542
:1001F00091E00E94EB0021E0892B09F420E0822F9E
:10020000089580E090E0892B29F00E94F700811189
:100210000C9400000895FC01A48DA80FB92FB11D06
:10022000A35ABF4F2C91848D90E001968F7399272C
:10023000848FA689B7892C93A089B1898C9183700A
:1002400080648C93938D848D981306C00288F38903
:10025000E02D80818F7D80830895EF92FF920F9330
:100260001F93CF93DF93EC0181E0888F9B8D8C8D62
:1002700098131AC0E889F989808185FF15C09FB756
:10028000F894EE89FF896083E889F9898081837019
:10029000806480839FBF81E090E0DF91CF911F91C8
:1002A0000F91FF90EF900895F62E0B8D10E00F5FE9
:1002B0001F4F0F731127E02E8C8D8E110CC00FB6BF
:1002C00007FCFACFE889F989808185FFF5CFCE0157
:1002D0000E940B01F1CFEB8DEC0FFD2FF11DE35AC6
:1002E000FF4FF0829FB7F8940B8FEA89FB898081DA
:1002F0008062CFCFCF93DF93EC01888D8823B9F054
:10030000AA89BB89E889F9898C9185FD03C0808120
:1003100086FD0DC00FB607FCF7CF8C9185FFF2CF9D
:10032000808185FFEDCFCE010E940B01E9CFDF91E7
:10033000CF910895833081F028F4813099F0823094
:10034000A9F008958730A9F08830C9F08430B1F45D
:10035000809180008F7D03C0809180008F77809393
:100360008000089584B58F7784BD089584B58F7D0E
:10037000FBCF8091B0008F778093B000089580917B
:10038000B0008F7DF9CFCF93DF9390910001891357
:100390000BC0E2ECF0E0E4919FEF90930001E130BC
:1003A00059F138F1E23071F1282F30E0F901E458C9
:1003B000FF4F8491F901E057FF4FD491F901E255C5
:1003C000FF4FC491CC2391F081110E949A01EC2F30
:1003D000F0E0EE0FFF1FEC55FF4FA591B4918FB7E2
:1003E000F894EC91D095DE23DC938FBFDF91CF9111
:1003F000089510926E00D8CF90916F009D7F9093DA
:100400006F00D2CF909170009D7F9093700091E02B
:100410009093B0009091B100987F94609093B10058
:100420001092B300C1CFCF93DF9390E0FC01E0576F
:10043000FF4F249182559F4FFC0184918823D1F076
:1004400090E0880F991FFC01E859FF4FA591B491E6
:10045000FC01EC55FF4FC591D49161110EC09FB7BF
:10046000F8948C91E22FE0958E238C932881E223DF
:10047000E8839FBFDF91CF9108958FB7F894EC91F7
:10048000E22BEC938FBFF6CF3FB7F89480914301F6
:1004900090914401A0914501B091460126B5A89BD9
:1004A00005C02F3F19F00196A11DB11D3FBFBA2F06
:1004B000A92F982F8827BC01CD01620F711D811DC6
:1004C000911D42E0660F771F881F991F4A95D1F74B
:1004D00008958F929F92AF92BF92CF92DF92EF9248
:1004E000FF920E9444024B015C0188ECC82ED12C83
:1004F000E12CF12C0E944402681979098A099B09B0
:10050000683E734081059105A8F321E0C21AD10825
:10051000E108F10888EE880E83E0981EA11CB11C4A
:10052000C114D104E104F10429F7FF90EF90DF90AA
:10053000CF90BF90AF909F908F900895FC01019055
:100540000020E9F73197AF01481B590BBC0188E542
:1005500091E00C948D001F920F920FB60F92112410
:100560002F933F934F935F936F937F938F939F93BB
:10057000AF93BF93EF93FF9380914C0190914D0106
:10058000A0914E01B0914F01892B8A2B8B2BD1F179
:1005900090914701E0914801F091490180818927BC
:1005A000808380914C0190914D01A0914E01B091BA
:1005B0004F01181619061A061B069CF480914C016F
:1005C00090914D01A0914E01B0914F010197A10969
:1005D000B10980934C0190934D01A0934E01B093CB
:1005E0004F01FF91EF91BF91AF919F918F917F91BB
:1005F0006F915F914F913F912F910F900FBE0F9090
:100600001F901895809100010E94C301EACF1F92AC
:100610000F920FB60F9211242F933F934F935F9336
:100620006F937F938F939F93AF93BF93EF93FF93BA
:1006300088E591E00E940B01FF91EF91BF91AF918E
:100640009F918F917F916F915F914F913F912F91EA
:100650000F900FBE0F901F9018951F920F920FB61C
:100660000F9211242F938F939F93EF93FF93E09119
:100670006801F09169018081E0916E01F0916F0154
:1006800082FD1BC09081809171018F5F8F732091DB
:100690007201821741F0E0917101F0E0E85AFE4FDB
:1006A000958F80937101FF91EF919F918F912F9181
:1006B0000F900FBE0F901F9018958081F4CF1F925E
:1006C0000F920FB60F9211242F933F938F939F9306
:1006D000AF93BF9380913F0190914001A091410160
:1006E000B091420130913E0123E0230F2D3758F5A0
:1006F0000196A11DB11D20933E0180933F0190936F
:100700004001A0934101B093420180914301909137
:100710004401A0914501B09146010196A11DB11D72
:100720008093430190934401A0934501B093460107
:10073000BF91AF919F918F913F912F910F900FBEDD
:100740000F901F90189526E8230F0296A11DB11D4A
:10075000D2CF789484B5826084BD84B5816084BD35
:1007600085B5826085BD85B5816085BD80916E004F
:10077000816080936E001092810080918100826080
:1007800080938100809181008160809381008091BD
:1007900080008160809380008091B10084608093AC
:1007A000B1008091B00081608093B00080917A00A8
:1007B000846080937A0080917A00826080937A00CE
:1007C00080917A00816080937A0080917A008068BD
:1007D00080937A001092C10060E08DE00E941302C5
:1007E00061E08BE00E941302E0916801F0916901E1
:1007F00082E08083E0916401F09165011082E091D4
:100800006601F09167018FEC808310927001E09196
:100810006C01F0916D0186E08083E0916A01F091B6
:100820006B01808180618083E0916A01F0916B01AE
:10083000808188608083E0916A01F0916B01808102
:1008400080688083E0916A01F0916B0180818F7DE7
:1008500080836FE3C62E6FE1D62E72ECE72E70E038
:10086000F72EE9EB4E2EE0E05E2E0BE910E0882437
:100870008A94982C54015DE9252E50E0352E40E0F5
:10088000642E40E0742EE9E8F0E08491F101C49117
:10089000EBEBF0E0D491DD2309F4F1C081110E946B
:1008A0009A01ED2FF0E0EE0FFF1FEE58FF4FA591DC
:1008B000B4918C918C2309F4E2C0809100018B30BB
:1008C00029F5F701C491C7FDBCC061E08BE00E942F
:1008D0001302CC2309F488C0C23009F099C080917A
:1008E000B100887F83608093B10089EF8093B3006B
:1008F00080924C0190924D01A0924E01B0924F0116
:10090000809170008260809370009BC08F3F09F0DF
:1009100098C08BE080930001F701C491CF3F09F4A8
:1009200090C0C13019F150F0C23009F43CC0C7FD8D
:1009300088C061E08BE00E941302CECF14BC15BCCE
:1009400084B5826084BD85B5816085BDF2018491E6
:10095000E82FF0E0EE0FFF1FEC55FF4F85919491CB
:10096000F801849180934B01C0E0AFCF10928000DA
:100970001092810080918100886080938100809135
:100980008100816080938100F2018491E82FF0E082
:10099000EE0FFF1FEC55FF4F85919491F801849164
:1009A00080934A0192CF1092B0001092B1008091D2
:1009B000B00082608093B0008091B100816080932C
:1009C000B100F2018491E82FF0E0EE0FFF1FEC552B
:1009D000FF4F859194919093490180934801F801CC
:1009E00084918093470171CF85B5887F836085BDF1
:1009F0008CE787BD8092540190925501A0925601D8
:100A0000B092570180916E00826080936E0019C091
:100A1000C13069F580918100887F81608093810079
:100A2000D0928900C092880080925001909251012A
:100A3000A0925201B092530180916F008260809326
:100A40006F0083E191E00E949E0284E291E00E94A7
:100A50009E020E9469026114710409F414CF0E947D
:100A6000F700882309F40BCF0E94000004CFC230A6
:100A700021F0C111E6CF8FE3BCCF8FE337CF8BE0FE
:100A80000E94C30187E291E0DECFE8E5F1E0138246
:100A9000128288EE93E0A0E0B0E084839583A68381
:100AA000B78385E091E09183808385EC90E0958722
:100AB000848784EC90E09787868780EC90E0918B28
:100AC000808B81EC90E0938B828B82EC90E0958B15
:100AD000848B86EC90E0978B868B118E128E138E12
:100AE000148E0895EE0FFF1F0590F491E02D0994E8
:040AF000F894FFCFA8
:100AF400FF000000002D018D00BA007A01EB00C94F
:100B040000DD00476572616B20546572646574652D
:100B14006B7369000D0A00476572616B2054696448
:0E0B2400616B20546572646574656B736900C3
:00000001FF
